{
  "contractName": "EthSwap",
  "abi": [
    {
      "inputs": [
        {
          "internalType": "contract Token",
          "name": "_token",
          "type": "address"
        }
      ],
      "payable": false,
      "stateMutability": "nonpayable",
      "type": "constructor"
    },
    {
      "constant": true,
      "inputs": [],
      "name": "name",
      "outputs": [
        {
          "internalType": "string",
          "name": "",
          "type": "string"
        }
      ],
      "payable": false,
      "stateMutability": "view",
      "type": "function"
    },
    {
      "constant": true,
      "inputs": [],
      "name": "rate",
      "outputs": [
        {
          "internalType": "uint256",
          "name": "",
          "type": "uint256"
        }
      ],
      "payable": false,
      "stateMutability": "view",
      "type": "function"
    },
    {
      "constant": true,
      "inputs": [],
      "name": "token",
      "outputs": [
        {
          "internalType": "contract Token",
          "name": "",
          "type": "address"
        }
      ],
      "payable": false,
      "stateMutability": "view",
      "type": "function"
    },
    {
      "constant": false,
      "inputs": [],
      "name": "buytokens",
      "outputs": [],
      "payable": true,
      "stateMutability": "payable",
      "type": "function"
    }
  ],
  "bytecode": "0x60806040526040518060400160405280601881526020017f4574685377617020496e7374616e742045786368616e676500000000000000008152506000908051906020019061004f9291906100dc565b50606460025534801561006157600080fd5b506040516104e03803806104e08339818101604052602081101561008457600080fd5b810190808051906020019092919050505080600160006101000a81548173ffffffffffffffffffffffffffffffffffffffff021916908373ffffffffffffffffffffffffffffffffffffffff16021790555050610181565b828054600181600116156101000203166002900490600052602060002090601f016020900481019282601f1061011d57805160ff191683800117855561014b565b8280016001018555821561014b579182015b8281111561014a57825182559160200191906001019061012f565b5b509050610158919061015c565b5090565b61017e91905b8082111561017a576000816000905550600101610162565b5090565b90565b610350806101906000396000f3fe60806040526004361061003f5760003560e01c806306fdde03146100445780632c4e722e146100d4578063625f9513146100ff578063fc0c546a14610109575b600080fd5b34801561005057600080fd5b50610059610160565b6040518080602001828103825283818151815260200191508051906020019080838360005b8381101561009957808201518184015260208101905061007e565b50505050905090810190601f1680156100c65780820380516001836020036101000a031916815260200191505b509250505060405180910390f35b3480156100e057600080fd5b506100e96101fe565b6040518082815260200191505060405180910390f35b610107610204565b005b34801561011557600080fd5b5061011e6102f5565b604051808273ffffffffffffffffffffffffffffffffffffffff1673ffffffffffffffffffffffffffffffffffffffff16815260200191505060405180910390f35b60008054600181600116156101000203166002900480601f0160208091040260200160405190810160405280929190818152602001828054600181600116156101000203166002900480156101f65780601f106101cb576101008083540402835291602001916101f6565b820191906000526020600020905b8154815290600101906020018083116101d957829003601f168201915b505050505081565b60025481565b600060025434029050600160009054906101000a900473ffffffffffffffffffffffffffffffffffffffff1673ffffffffffffffffffffffffffffffffffffffff1663a9059cbb33836040518363ffffffff1660e01b8152600401808373ffffffffffffffffffffffffffffffffffffffff1673ffffffffffffffffffffffffffffffffffffffff16815260200182815260200192505050602060405180830381600087803b1580156102b657600080fd5b505af11580156102ca573d6000803e3d6000fd5b505050506040513d60208110156102e057600080fd5b81019080805190602001909291905050505050565b600160009054906101000a900473ffffffffffffffffffffffffffffffffffffffff168156fea265627a7a723158205b5f2a2d8dc44fcc61857b5e6493243c6a61266e3cf851b2c40e28916ae2f1cd64736f6c63430005100032",
  "source": "pragma solidity ^0.5.0;\n\n// Import DApp Token contract so we can talk to it\nimport \"./Token.sol\";\n\ncontract EthSwap {\n\t// Statically typed language - string variable\n\t// Public - a function on the smart contract called name which will return that value. \n\t// STATE VARIABLE - data is actually stored on the blockchain\n\tstring public name = \"EthSwap Instant Exchange\";\n\n\t// Keep track of token through a var - token methods will be called on this varaible. \n\t// Just the code for SC doesnt tell us where it is on blockchain\n\tToken public token;\n\n\t// Redemption rate = # of tokens they recieve for 1 ether \n\t// unsigned integer - cant be negative and decimal places\n\tuint public rate = 100;\n\n\t//Set the address of the token(which lives on BC)\n\tconstructor(Token _token) public {\n\t\t// _token is only local variable but its stored to the state variable token \n\t\ttoken = _token;   // This will store it to the STATE VARIABLE and not local variable (_token)\n\t}\n\n\t// Public - callable outside the SC\n\t// Payable - send ether whenever we call fn\n\tfunction buytokens() public payable{\n\t\t// Calculate the number of tokens to buy\n\t\tuint tokenAmount = msg.value * rate; // msg.value - global variable telling us how much ETHER was sent when the fn was called\n\n\t\t// Transfer the token from EthSwap to whoever is buying it\n\t\t// arg1 - msg is a global variable in solidity - sender is value of address calling this function\n\t\t// arg2 - the value of tokens based on the eth amount they are sending. \n\t\ttoken.transfer(msg.sender, tokenAmount);\n\t}\n}",
  "sourcePath": "/Users/mikelkota/Dev-Env-Mac/eth_swap_BCDEV/src/contracts/EthSwap.sol",
  "compiler": {
    "name": "solc",
    "version": "0.5.16+commit.9c3226ce.Emscripten.clang"
  },
  "schemaVersion": "3.4.3",
  "updatedAt": "2021-11-01T17:05:43.937Z",
  "devdoc": {
    "methods": {}
  },
  "userdoc": {
    "methods": {}
  }
}